:020000040020DA
:1000000000000820DD832200719321007B932100F2
:10001000859321008F932100999321000000000017
:10002000000000000000000000000000717C2200C1
:10003000A393210000000000817E2200E97E2200BF
:100040002D8422002D8422002D8422002D84220064
:100050002D8422002D8422002D8422002D84220054
:100060002D8422002D842200AF9321002D842200B4
:100070002D8422002D842200BD9321002D84220096
:100080002D8422002D8422002D8422002D84220024
:100090002D8422002D8422002D8422002D84220014
:1000A0002D8422002D8422002D8422002D84220004
:1000B0002D8422002D8422002D842200D193210042
:1000C0002D8422002D8422002D8422002D842200E4
:1000D0002D8422002D8422002D8422002D842200D4
:1000E0002D8422002D8422002D8422002D842200C4
:1000F0002D842200E59321002D8422002D842200EE
:100100002D842200F99321002D8422002D842200C9
:100110002D8422002D8422002D8422002D84220093
:100120002D8422002D8422002D8422000D94210094
:100130002D8422002D8422002D8422002D84220073
:100140002D8422002D8422002D8422002D84220063
:100150002D842200219421002D8422002D84220050
:100160002D8422002D8422002D8422002D84220043
:100170002D8422002D8422002D8422000000000006
:100180002D8422002D842200359421002D8422000C
:100190002D8422002D8422002D8422002D84220013
:1001A0002D8422002D842200499421002D842200D8
:1001B0002D8422002D8422002D8422002D842200F3
:1001C0002D8422002D8422002D8422002D842200E3
:1001D0002D8422002D8422002D8422002D842200D3
:1001E0002D8422002D8422002D8422002D842200C3
:0801F0002D8422002D84220061
:1002000010B5054C237833B9044B13B10448AFF350
:1002100000800123237010BD80000020000000003A
:10022000909B220008B5034B1BB103490348AFF371
:10023000008008BD0000000084000020909B220088
:10024000034613F8012B002AFBD1181A0138704716
:1002500080F0004002E000BF81F0004142001FBF7B
:100260005FEA410392EA030F7FEA226C7FEA236C84
:100270006AD04FEA1262D2EB1363C1BFD218414079
:1002800048404140B8BF5B42192B88BF704710F00F
:10029000004F40F4000020F07F4018BF404211F0B2
:1002A000004F41F4000121F07F4118BF494292EA1A
:1002B000030F3FD0A2F1010241FA03FC10EB0C0046
:1002C000C3F1200301FA03F100F0004302D54942D3
:1002D00060EB4000B0F5000F13D3B0F1807F06D380
:1002E00040084FEA310102F10102FE2A51D2B1F178
:1002F000004F40EBC25008BF20F0010040EA03006D
:100300007047490040EB0000013A28BFB0F5000FEC
:10031000EDD2B0FA80FCACF1080CB2EB0C0200FAA2
:100320000CF0AABF00EBC25052421843BCBFD040F1
:100330001843704792F0000F81F4000106BF80F46B
:1003400000000132013BB5E74FEA41037FEA226C2E
:1003500018BF7FEA236C21D092EA030F04D092F0F9
:10036000000F08BF0846704790EA010F1CBF00202D
:10037000704712F07F4F04D1400028BF40F000408A
:10038000704712F100723CBF00F50000704700F0AA
:10039000004343F0FE4040F4000070477FEA2262D1
:1003A00016BF08467FEA23630146420206BF5FEAA2
:1003B000412390EA010F40F4800070474FF00003A2
:1003C00004E000BF10F0004348BF40425FEA000C69
:1003D00008BF704743F0964301464FF000001CE011
:1003E00050EA010208BF70474FF000030AE000BF67
:1003F00050EA010208BF704711F0004302D54042A5
:1004000061EB41015FEA010C02BF84460146002016
:1004100043F0B64308BFA3F18053A3F50003BCFA31
:100420008CF2083AA3EBC25310DB01FA02FC6344DE
:1004300000FA02FCC2F12002BCF1004F20FA02F2E5
:1004400043EB020008BF20F00100704702F12002D8
:1004500001FA02FCC2F1200250EA4C0021FA02F239
:1004600043EB020008BF20EADC7070477BB972B929
:100470000029BEBF00204FF0004106E008BF002861
:100480001CBF6FF000414FF0FF3000F0F1B9ADF14B
:10049000080C6DE904CE002909DB002B1ADB00F003
:1004A00083F8DDF804E0DDE9022304B07047404240
:1004B00061EB4101002B1BDB00F076F8DDF804E076
:1004C000DDE9022304B0404261EB4101524263EB9B
:1004D00043037047524263EB430300F065F8DDF8D5
:1004E00004E0DDE9022304B0404261EB41017047C2
:1004F000524263EB430300F057F8DDF804E0DDE916
:10050000022304B0524263EB4303704753B94AB924
:10051000002908BF00281CBF4FF0FF314FF0FF300B
:1005200000F0A6B9ADF1080C6DE904CE00F03CF87E
:10053000DDF804E0DDE9022304B0704707EE900A1D
:10054000F5EEC07AF1EE10FA01D400F00DB8F1EE3C
:10055000677A08B517EE900A00F006F8404261EBA2
:10056000410108BD000000009FED0B6B07EE900AF3
:100570009FED0B5BB7EEE77A27EE066BBCEEC66B22
:10058000B8EE464BA4EE457BFCEEC77B16EE101A88
:1005900017EE900A704700BF000000000000F03D19
:1005A000000000000000F0412DE9F047089E0D46D4
:1005B00004460F46002B4AD18A42944665D9B2FAC6
:1005C00082F343B102FA03FCC3F120029F4020FAF8
:1005D00002F217439C404FEA1C4E1FFA8CF5B7FB02
:1005E000FEF1220C0EFB117742EA074201FB05F0F7
:1005F00090420AD91CEB020201F1FF3780F01C8106
:10060000904240F2198102396244121AA4B2B2FB3C
:10061000FEF00EFB102244EA024400FB05F5A54261
:100620000AD91CEB040400F1FF3280F00781A542D7
:1006300040F204816444023840EA0140641B002116
:100640001EB1DC400023C6E90043BDE8F0878B42C1
:1006500008D9002E00F0ED800021C6E9000508460B
:10066000BDE8F087B3FA83F1002949D1AB4202D348
:10067000824200F2F880841A65EB030201201746DB
:10068000002EE2D0C6E90047DFE702B9FFDEB2FA8A
:1006900082F3002B40F090808A1A4FEA1C471FFA21
:1006A0008CFE0121B2FBF7F507FB1520220C42EA74
:1006B00000420EFB05F0904208D91CEB020205F146
:1006C000FF3802D2904200F2CB804546121AA4B203
:1006D000B2FBF7F007FB102244EA02440EFB00FED7
:1006E000A64508D91CEB040400F1FF3202D2A6454E
:1006F00000F2BB801046A4EB0E0440EA05409FE7E1
:10070000C1F120078B4022FA07FC4CEA030C05FAE2
:1007100001F420FA07F3FD404FEA1C492343B5FBDF
:10072000F9F81FFA8CFE09FB18551C0C44EA054425
:1007300008FB0EF5A54202FA01F200FA01F00BD90E
:100740001CEB040408F1FF3A80F08880A54240F2D7
:100750008580A8F102086444641B9DB2B4FBF9F3E0
:1007600009FB134445EA044403FB0EFEA64508D9E1
:100770001CEB040403F1FF356CD2A6456AD9023B99
:10078000644443EA0843A3FB0295A4EB0E04AC4285
:10079000C846AE4656D353D056B1B0EB080264EB10
:1007A0000E0404FA07F7CA40CC401743C6E90074A8
:1007B00018460021BDE8F087C3F1200102FA03FCCE
:1007C00020FA01F225FA01F19D402A434FEA1C4725
:1007D0001FFA8CFEB1FBF7F007FB1015110C41EA74
:1007E000054100FB0EF58D4204FA03F408D91CEB19
:1007F000010100F1FF382FD28D422DD9023861441A
:10080000491B92B2B1FBF7F507FB151142EA014211
:1008100005FB0EF1914208D91CEB020205F1FF38ED
:1008200016D2914214D9023D6244521A45EA00415F
:1008300038E73146304608E73946E6E61046FBE63B
:100840004845A9D2B9EB020865EB0C0E013BA3E7C2
:100850004546EAE72B4694E74046D1E7D0467BE79A
:10086000023D624432E708460AE76444023842E740
:10087000704700BF80B500AF18F0F6FE642200217B
:10088000044827F031FE6421024819F02BF800BF1C
:1008900080BD00BFA000002080B582B000AF7860AE
:1008A00039607B68002B02D0386819F005F800BF6A
:1008B0000837BD4680BD0CB480B584B000AF786009
:1008C00039607B68002B12D0386827F0A3FBF860F2
:1008D00007F11C03BB60BB68BA693968F86800F0AF
:1008E000D5FCF86818F0E8FFF86827F05DFC00BF59
:1008F0001037BD46BDE8804002B0704780B400AFFD
:10090000054B1B78002B01D0012300E00023184683
:10091000BD465DF8047B7047A000002080B582B022
:1009200000AF786079680C4827F006FE0346002B7C
:100930000CD019F001F864220021074827F0D4FDFB
:100940006421054818F0CEFF012300E0002318467B
:100950000837BD4680BD00BFA000002080B500AFB5
:10096000084818F0A9FF64220021064827F0BCFDC2
:100970006421044818F0B6FF03490120FFF78CFFFB
:1009800000BF80BDA0000020A89B220080B582B0DF
:1009900000AF7860FFF7B2FF0346002B09D07868FC
:1009A000FFF7BCFF0346002B01D0012302E0002328
:1009B00000E0002318460837BD4680BD0000000057
:1009C0002DE9B04F2DED028B98B000AFF86087EDA8
:1009D000020A79604FF001004FF00001C7E91001F1
:1009E000F968F963D7ED027AF0EEE77A9FEDBC7A09
:1009F000F4EE477AF1EE10FA8CBF01210021C9B262
:100A000081F00101C9B2002900F04081D7ED027ADE
:100A10009FEDB47AF4EEC77AF1EE10FA08D9D7ED6B
:100A2000027A9FEDB17AF4EEC77AF1EE10FA19DB93
:100A3000FB6B5A1CFA632D221A70FB6B5A1CFA636B
:100A40002D221A70FB6B5A1CFA632D221A70FB6B55
:100A50005A1CFA632D221A70FB6B5A1CFA632D2262
:100A60001A702CE1D7ED027AF5EEC07AF1EE10FAA9
:100A70000ED5F96B481CF8632D200870D7ED027A6B
:100A8000B7EEE77AF7EEC77BF1EE677AC7ED027A49
:100A90007968072934D8D7ED027AB7EEE76A934828
:100AA0007968C900014491ED007B36EE077BF7EED3
:100AB000C77BC7ED027A0021F9651CE0D7E91089F0
:100AC000404649464FF000044FF000058D0045EACE
:100AD000907584002046294610EB080241EB09037B
:100AE00012EB020A43EB030B52465B46C7E91023A5
:100AF000F96D0131F965F96D78688842DED812E048
:100B000007237B60D7ED027AB7EEE77A9FED726B31
:100B100037EE067BF7EEC77BC7ED027A744A4FF0DB
:100B20000003C7E91023B868FFF708FD02460B462B
:100B3000C7E91423D7E91401FFF75AFC07EE100A9E
:100B4000D7ED027A37EEC78AD7E91001FFF750FCDC
:100B500007EE900A68EE277A17EE900AFFF7EEFC90
:100B600002460B46C7E912230023FB651DE0D7E9C7
:100B700014014FF00A024FF00003FFF777FCD2B2E6
:100B8000FB6D591CF9653032D2B260333B4403F837
:100B90004C2CD7E914014FF00A024FF00003FFF785
:100BA00065FC02460B46C7E91423D7E91423134317
:100BB000DDD1FB6D002B12D1FB6B5A1CFA63302286
:100BC0001A700FE0FB6D5A1EFB6B591CF963603203
:100BD0003A4412F84C2C1A70FB6D013BFB65FB6D1F
:100BE000002BEFDC7B68002B69D0FB6B5A1CFA638F
:100BF0002E221A700023FB651DE0D7E912014FF089
:100C00000A024FF00003FFF731FCD2B2FB6D591C12
:100C1000F9653032D2B260333B4403F84C2CD7E94B
:100C200012014FF00A024FF00003FFF71FFC0246CB
:100C30000B46C7E91223D7E912231343DDD107E09E
:100C4000FB6D5A1CFA6560333B44302203F84C2C90
:100C5000FB6D7A689A42F3D8FB6D002B12D1FB6BC7
:100C60005A1CFA6330221A7029E0FB6D5A1EFB6B86
:100C7000591CF96360323A4412F84C2C1A70FB6D1F
:100C8000013BFB65FB6D002BEFDC18E0FB6B5A1C96
:100C9000FA632D221A70FB6B5A1CFA632D221A700C
:100CA000FB6B5A1CFA632D221A70FB6B5A1CFA63F9
:100CB0002D221A70FB6B5A1CFA632D221A70FB6BE3
:100CC00000221A7000BF6037BD46BDEC028BBDE844
:100CD000B08F00BFAFF3008048AFBC9AF2D76A3E36
:100CE000FFFF7F7F21E6B5D621E6B556C0AB2200D7
:100CF00080969800B0B485B000AF7860914BFB60EF
:100D00007B68132B00F2178101A252F823F000BF79
:100D1000610D20006F0D2000810D2000990D200035
:100D2000AF0D2000C70D2000DF0D2000F30D2000C7
:100D3000070E20001B0E2000330E2000510E200055
:100D4000690E2000830E20009B0E2000AF0E2000B5
:100D5000C70E2000DB0E2000F90E20001B0F200024
:100D6000FB68794A1068186092889A80E3E0FB6813
:100D7000764A1C46134607CB20606160A260DAE029
:100D8000FB6873491A460B4603CB10605160198803
:100D90009B7811819372CEE0FB686E4A1C46134625
:100DA00007CB20606160A2601B782373C3E0FB68FF
:100DB00069491A460B4603CB1060516019889B782D
:100DC00011819372B7E0FB6864491A460B4603CB66
:100DD0001060516019889B7811819372ABE0FB68B9
:100DE0005F4A1C4615460FCD20606160A260E3603B
:100DF000A1E0FB685B491A460B4603CB10605160CB
:100E00001B88138197E0FB6857491A460B4603CBB2
:100E1000106051601B7813728DE0FB68534A1D46C9
:100E200014460FCC28606960AA60EB6023882B828F
:100E300081E0FB684E4A1D4614460FCC286069606D
:100E4000AA60EB602388A2782B821346AB7472E011
:100E5000FB68484A1D4614460FCC28606960AA60AA
:100E6000EB6023782B7466E0FB68434A1C4613460C
:100E700007CB20606160A2601A889B78A281A3736F
:100E800059E0FB683D4A1D4614460FCC2860696056
:100E9000AA60EB6023782B744DE0FB68384A1C464F
:100EA00015460FCD20606160A260E36043E0FB68FF
:100EB00034491A460B4603CB1060516019889B7861
:100EC0001181937237E0FB682F491A460B4603CB1A
:100ED000106051601B8813812DE0FB682B4A1D4672
:100EE00014460FCC28606960AA60EB602388A27862
:100EF0002B821346AB741EE0FB68254A1C46154640
:100F00000FCD20606160A260E36028682061AB883B
:100F1000AA79A3821346A3750DE0FB681D4A1D46FE
:100F200014460FCC28606960AA60EB6020682861D5
:100F300023792B7500BFFB6818461437BD46B0BC3B
:100F4000704700BF04010020D49B2200DC9B2200DC
:100F5000E89B2200F49B2200049C2200109C2200AB
:100F60001C9C22002C9C2200389C2200449C2200C5
:100F7000589C22006C9C2200809C2200909C2200A5
:100F8000A49C2200B49C2200C09C2200CC9C220085
:100F9000E09C2200F89C220080B582B000AF78600F
:100FA0007868FFF7A7FE0346044A32210120FFF7C5
:100FB00082FC00BF0837BD4680BD00BF109D2200E7
:100FC00080B582B000AF78607868FFF793FE034683
:100FD000044A32210120FFF76EFC00BF0837BD46EE
:100FE00080BD00BF309D220080B582B000AF786028
:100FF0007868FFF77FFE0346044A32210120FFF79D
:101000005AFC00BF0837BD4680BD00BF689D220066
:1010100080B582B000AF78607868FFF76BFE03465A
:10102000044A32210120FFF746FC00BF0837BD46C5
:1010300080BD00BF889D220080B582B000AF78607F
:101040007868FFF757FE0346044A32210120FFF774
:1010500032FC00BF0837BD4680BD00BFC89D2200DE
:1010600080B500AF02490120FFF716FC00BF80BD2C
:10107000E49D220080B500AF02490120FFF70CFC7F
:1010800000BF80BDF89D220080B500AF024901205D
:10109000FFF702FC00BF80BD149E220080B500AFA8
:1010A00002490120FFF7F8FB00BF80BD309E2200FF
:1010B00080B500AF02490120FFF7EEFB00BF80BD05
:1010C0004C9E220080B500AF02490120FFF7E4FBEF
:1010D00000BF80BD689E220080B500AF024901209C
:1010E000FFF7DAFB00BF80BD849E220080B500AF11
:1010F00002490120FFF7D0FB00BF80BD949E220073
:1011000080B485B000AF78600023FB6002E0FB682C
:101110000133FB607A68FB6813441B78002BF6D11F
:10112000FB6818461437BD465DF8047B704780B4F1
:101130008BB000AFF860B9607A603B603B6B7B625C
:1011400000233B62BB68102B01D9002377E0FB68CA
:10115000002B07DA3B68002B04D101233B62FB68BC
:101160005B42FB60FB68BA68B3FBF2F2B96801FB53
:1011700002F29B1ABB61BB69092B04DCBB69DBB2C1
:101180003033DAB20BE07B68002B01D0412200E063
:101190006122BB69DBB21344DBB20A3BDAB27B6A81
:1011A000591C79621A70FA68BB68B2FBF3F3FB60F2
:1011B000FB68002BD6DC7A6A3B6BD31AFB6107E035
:1011C0007B6A5A1C7A6230221A70FB690133FB6118
:1011D000FA697B6B9A42F3D33B6A002B04D07B6A9B
:1011E0005A1C7A622D221A707B6A00221A707A6A5F
:1011F0003B6BD31A7B610023FB611AE03A6BFB69FE
:1012000013441B78FB747A69FB69D31A013B3A6B70
:101210001A44396BFB690B4412781A707A69FB69BE
:10122000D31A013B3A6B1344FA7C1A70FB69013301
:10123000FB617B695B08FA699A42DFD37B691846D8
:101240002C37BD465DF8047B704780B483B000AF97
:101250000346FB716346C7F800C099685A688A1A4A
:10126000013211461A688A4201D8002308E09A68C0
:10127000511C9960F97911709B6800221A70012342
:1012800018460C37BD465DF8047B704780B594B0B6
:1012900002AFF860B9607A603B6007F150033B62CF
:1012A000FB68BB61BB687B61BB69FB6103E1FA69F9
:1012B000BB69D31A01331A467B69934240F2078116
:1012C00097F84730252B08D097F8473007F11402DC
:1012D00094461846FFF7B9FFEDE0002387F8463043
:1012E0007B685A1C7A601B7887F8473097F847303C
:1012F000302B1DD17B685A1C7A601B7887F84730E9
:1013000097F84730002B00F0E48097F847302F2BF8
:1013100008D997F84730392B04D897F84730303B35
:1013200087F846307B685A1C7A601B7887F847300C
:1013300097F84730002B00F0CE80002BC0F2B2802F
:10134000782B00F3AF80582BC0F2AC80583B202B99
:1013500000F2A88001A252F823F000BF2714200059
:10136000A5142000A5142000A5142000A514200019
:10137000A5142000A5142000A5142000A514200009
:10138000A5142000A51420006B142000E1132000F8
:10139000A5142000A5142000A5142000A5142000E9
:1013A000A5142000A5142000A5142000A5142000D9
:1013B000A5142000A5142000A5142000A5142000C9
:1013C000A5142000A514200083142000A5142000DB
:1013D000E1132000A5142000A514200027142000EC
:1013E0003B681A1D3A601B68184697F84730752B02
:1013F0000CBF01230023DBB21A4697F84630019355
:1014000007F124030093134600220A21FFF78FFE01
:10141000F86307F1240307F114029446F96B1846A8
:1014200000F062F847E03B681A1D3A601B681846F6
:1014300097F84730582B0CBF01230023DBB21A4624
:1014400097F84630019307F12403009301231021FC
:10145000FFF76DFEF86307F1240307F114029446C9
:10146000F96B184600F040F825E03B681A1D3A6019
:101470001B68DBB207F1140294461846FFF7E5FE3D
:1014800019E03B681A1D3A601B683B64386CFFF733
:1014900037FE024607F114039C461146386C00F0F3
:1014A00023F808E097F8473007F1140294461846ED
:1014B000FFF7CBFE00BF7B685A1C7A601B7887F869
:1014C000473097F84730002B7FF4F1AE04E000BFBF
:1014D00002E000BF00E000BFFA69BB69D31A1846FA
:1014E0004837BD4680BD00BF80B487B000AFF8600C
:1014F000B9606346C7F804C099685A688A1A1146E9
:101500001A68521A013AB968914207D999685A681B
:101510008A1A11461A68521A013ABA6000227A6190
:101520000AE0F9687A6911449A68501C9860097851
:1015300011707A6901327A617969BA689142F0D39F
:101540009B6800221A70BB6818461C37BD465DF8C0
:10155000047B704780B582B000AF0122084909487A
:1015600023F066F80346FB71FB79002B03D0FB796F
:101570001846FFF711FD00BF0837BD4680BD00BF0C
:10158000C4160120C816012080B584B000AF034600
:101590003960FB711346BB71FB794FF40C7202FB8F
:1015A00003F30A4A1344BA793968184623F0A4F8B9
:1015B0000346FB73FB7B002B03D0FB7B1846FFF736
:1015C000FFFCFB7B18461037BD4680BD380100206C
:1015D00080B588B000AF0346B9607A60FB73FB7BCF
:1015E0004FF40C7202FB03F30D4A981807F1140331
:1015F0007A68B96823F05AFA0346FB76FB7E002B23
:1016000007D0FB7E1846FFF7DBFCFB7E5B42FB61ED
:1016100001E07B69FB61FB6918462037BD4680BD50
:101620003801002080B588B000AF0346B9607A6009
:10163000FB73FB7B4FF40C7202FB03F30D4A98180B
:1016400007F114037A68B96823F09EFB0346FB7622
:10165000FB7E002B07D0FB7E1846FFF7C5FCFB7E08
:101660005B42FB6101E07B69FB61FB691846203747
:10167000BD4680BD3801002080B584B000AF034670
:10168000FB71FB794FF40C7202FB03F3094A13441C
:10169000184623F0A6FD0346FB73FB7B002B03D00B
:1016A000FB7B1846FFF7B4FCFB7B18461037BD46A2
:1016B00080BD00BF3801002080B5CAB000AF07F57B
:1016C0009473A3F59273186007F59473A3F594735C
:1016D000196007F10C0207F59473A3F59273114694
:1016E000186823F0ADFD034687F8273197F82731B6
:1016F000002B05D097F827311846FFF79DFC0AE02C
:1017000007F59473A3F58E731A6807F59473A3F520
:1017100094731B681A6097F82731184607F5947779
:10172000BD4680BD80B483B000AF6346C7F804C037
:101730005A68002A04DA1B68012B0BD801230AE03F
:101740005A68002A06DD1B68002B01D0022B01D14C
:10175000012300E0002318460C37BD465DF8047BEA
:101760007047000080B58EB000AFF8607A603B60D3
:101770000B46FB7207F14003FB61FB68BB613B68F2
:101780007B610A237B6301233B63634B1B68FB6222
:10179000BB69002B06DABB695B42BB622D2387F86D
:1017A000273004E0BB69BB622B2387F82730BA6A75
:1017B0007B6B9A4280F296803A6B7B689A4259DA48
:1017C000554B1A687B681344C72B04DD524B00222B
:1017D0001A600023FB627B69032B25D0FB7A202B48
:1017E00008D14D4B1B685A1C4B490A604B49FA7A89
:1017F000CA5419E007F114039C46FFF793FF034610
:10180000012B09D1444B1B685A1C43490A604349C8
:1018100097F82720CA5407E03F4B1B685A1C3E49E3
:101820000A603E4A2021D1547A683B6BD31A3B624E
:10183000394B1B68394A1344F97A3A6A184626F03C
:1018400053FE354B1A683B6A1344334A1360FB7AE4
:10185000202B37D107F114039C46FFF763FF0346A3
:10186000012B2FD12C4B1B68013B2C4997F82720CB
:10187000CA5427E0284B1A683B6B1344C72B04DD7E
:10188000254B00221A600023FB627B69032B19D0D1
:1018900007F114039C46FFF745FF0346012B09D1CE
:1018A0001D4B1B685A1C1C490A601C4997F82720CD
:1018B000CA5407E0184B1B685A1C17490A60174A9C
:1018C0002021D154144B1B68144A13440A22194690
:1018D000B86A26F0C4FD104B1A683B6B13440E4ADD
:1018E000136009E07A6B13469B0013445B007B6333
:1018F0003B6B01333B635AE7074B1B685A1C064995
:101900000A60064A0021D154FB6A044A134418466F
:101910003837BD4680BD00BF44180020181700208E
:1019200080B483B000AF6346C7F804C0D3ED017A3A
:10193000F5EEC07AF1EE10FA04D51B68012B0FD832
:1019400001230EE0D3ED017AF5EEC07AF1EE10FA44
:1019500006DD1B68002B01D0022B01D1012300E022
:10196000002318460C37BD465DF8047B7047000025
:1019700080B590B000AF87ED050AF960BA607B6072
:101980000346FB7407F148037B627B693B62BB68DB
:10199000FB610A23FB630123BB636F4B1B687B6303
:1019A000D7ED087AF5EEC07AF1EE10FA09D5D7ED49
:1019B000087AF1EE677AC7ED0C7A2D2387F82F307D
:1019C00004E03B6A3B632B2387F82F30FB6B07EE69
:1019D000903AF8EEE77A97ED0C7AB4EEE77AF1EE0A
:1019E00010FA40F19F80BA6BFB689A425BDA5A4B5F
:1019F0001A68FB681A447B681344C62B04DD564BF7
:101A000000221A6000237B63FB69032B25D0FB7C3B
:101A1000202B08D1504B1B685A1C4F490A604F4974
:101A2000FA7CCA5419E007F11C039C46FFF778FFC3
:101A30000346012B09D1484B1B685A1C46490A60D2
:101A4000464997F82F20CA5407E0434B1B685A1C9D
:101A500041490A60414A2021D154FA68BB6BD31A2C
:101A6000BB623D4B1B683D4A1344F97CBA6A184679
:101A700026F03AFD384B1A68BB6A1344364A1360A5
:101A8000FB7C202B39D107F11C039C46FFF748FF54
:101A90000346012B31D1304B1B68013B2F4997F88E
:101AA0002F20CA5429E02C4B1A68BB6B1A447B6860
:101AB0001344C62B04DD284B00221A6000237B63ED
:101AC000FB69032B19D007F11C039C46FFF728FF85
:101AD0000346012B09D1204B1B685A1C1E490A6082
:101AE0001E4997F82F20CA5407E01B4B1B685A1C4D
:101AF00019490A60194A2021D154174B1B68174A0B
:101B000013447A68114697ED0C0A1846FEF758FF01
:101B1000BA6B7B6813445A1C0F4B1B6813440E4A64
:101B2000136009E0FA6B13469B0013445B00FB63F0
:101B3000BB6B0133BB6349E7074B1B685A1C064963
:101B40000A60064A0021D1547B6B044A13441846AC
:101B50004037BD4680BD00BF441800201817002044
:101B60000FB480B586B000AF07F124037B601C4B37
:101B700000221A7000237B6125E07B681A1D7A60C1
:101B80001B683B613869FEF75BFB0346FB6014484A
:101B9000FEF756FB0346BB60BA68FB681344632B31
:101BA00008DDBB68C3F163031A4639690C4826F0A7
:101BB000B0FC0CE0FB681A463969094826F0A9FC1C
:101BC0007B6901337B617A693B6A9A42D5DB044BBE
:101BD00018461837BD46BDE8804004B0704700BFC6
:101BE000E017002080B485B000AF786039607B6872
:101BF0001B88FB813B681B88BB817B68BA891A8084
:101C00003B68FA891A8000BF1437BD465DF8047B33
:101C10007047000080B582B000AF78607B68092B08
:101C200006DC25F03FFA024603497B6841F8232091
:101C300000BF0837BD4680BD4818002080B586B07B
:101C400002AF786039607B68092B1BDC25F02AFA2B
:101C50000346FB603B681B78002B0CD0FA680C49EC
:101C60007B6851F82330D31A00933B68094A14214A
:101C70000120FEF720FEFA6805497B6851F8233001
:101C8000D31A00E0002318461037BD4680BD00BFC0
:101C900048180020B89E220080B588B000AFF860D8
:101CA000B9607A603B60BB683A6BD31A7B61FB6AB0
:101CB000023B3B61FB68002B1AD00023FB6112E062
:101CC0007968012003F038F83968386903F034F88E
:101CD0007968012003F030F8F96AB86A03F044F932
:101CE000FB690133FB61FA697B699A42E8DB1BE01F
:101CF0000023BB6114E07968012003F01DF80C4B50
:101D00001A683B6913440A4A13607968012003F09A
:101D100013F8F96AB86A03F027F9BB690133BB61AC
:101D2000BA697B699A42E6DB00BF2037BD4680BDB9
:101D30007018002080B582B000AF78606346C7F8A5
:101D400000C01A69002A05D0DB681946786802F0DD
:101D5000F3FF05E0044B1A687B681344024A1360E2
:101D600000BF0837BD4680BD7018002080B592B016
:101D700004AFF860B9607A603B6007F14003FB6232
:101D8000FB687B627B6D3B62BB6DFB61FB691B0E7D
:101D9000DBB287F828301B4BD3ED007A3B6AB0EEFC
:101DA000670A1946386D05F0C3FC7863154BD3ED0F
:101DB000017A3B6AB0EE670A1946386D05F0B8FC47
:101DC000386397F82830002B03D097F82830FF2B82
:101DD0001AD10C4BD3ED007AFB69B0EE670A1946B5
:101DE000386D05F0A5FC03467B61064BD3ED017A07
:101DF000FB69B0EE670A1946386D05F099FC034699
:101E0000BB6101E0502000207B6C3A6C7968B868B7
:101E100003F042F807F114039C46002000F0F0F9AB
:101E2000BB6C0A3B396D184602F086FF07F11403BC
:101E30009C46002000F06CFAB96C786803F094F8C6
:101E400007F114039C46012000F0DAF9396D0220F5
:101E500002F072FF796B012002F06EFF396B0120F6
:101E600002F06AFFBB6C0E3B1A4607F114039C4656
:101E70001046FFF75FFF396B012002F05DFF796BC1
:101E8000012002F059FF396D022002F055FF07F1E1
:101E900014039C46012000F03BFAB96C786803F00B
:101EA00063F807F114039C46022000F0A9F9396D8C
:101EB000012002F041FF796B012002F03DFFBB6C75
:101EC000083B1A4607F114039C461046FFF732FF01
:101ED000796B012002F030FF396D012002F02CFFF8
:101EE00007F114039C46022000F012FAB96C7868DE
:101EF00003F03AF807F114039C46032000F080F940
:101F0000396D012002F018FF796B012002F014FFF7
:101F1000BB6C063B1A4607F114039C461046FFF7BC
:101F200009FF796B012002F007FF396D012002F0F3
:101F300003FF07F114039C46032000F0E9F9B96C94
:101F4000786803F011F807F114039C46042000F0B0
:101F500057F9396D012002F0EFFEBB6C043B1A46C5
:101F600007F114039C461046FFF7E4FE396D01208B
:101F700002F0E2FE07F114039C46042000F0C8F9C9
:101F8000B96C786802F0F0FF396D012002F0D4FEE0
:101F9000796B012002F0D0FEBB6C043B1A4607F1BE
:101FA00014039C461046FFF7C5FE796B012002F032
:101FB000C3FE396D012002F0BFFEB96C786802F0F3
:101FC000D3FF396D012002F0B7FE396B012002F01A
:101FD000B3FEBB6C043B1A4607F114039C46104643
:101FE000FFF7A8FE396B012002F0A6FE396D012033
:101FF00002F0A2FEB96C786802F0B6FF786A3A6A1D
:10200000FB6C0293BB6C01937B68009313463A6DA3
:102010000E21FFF741FE396D012002F08DFE396B74
:10202000012002F089FEBB6C043B1A4607F1140341
:102030009C461046FFF77EFE396B012002F07CFEC5
:10204000396D012002F078FEB96C786802F08CFFDF
:10205000396D012002F070FE796B012002F06CFEF8
:10206000BB6C043B1A4607F114039C461046FFF76D
:1020700061FE796B012002F05FFE396D012002F0F4
:102080005BFEB96C786802F06FFF07F114039C46A1
:10209000042000F0B5F8396D012002F04DFEBB6C54
:1020A000043B1A4607F114039C461046FFF742FE14
:1020B000396D012002F040FE07F114039C46042014
:1020C00000F026F9B96C786802F04EFF07F11403AE
:1020D0009C46032000F094F8396D012002F02CFE9C
:1020E000796B012002F028FEBB6C063B1A4607F113
:1020F00014039C461046FFF71DFE796B012002F089
:102100001BFE396D012002F017FE07F114039C46F7
:10211000032000F0FDF8B96C786802F025FF07F1A4
:1021200014039C46022000F06BF8396D012002F088
:1021300003FE796B012002F0FFFDBB6C083B1A46E1
:1021400007F114039C461046FFF7F4FD796B01205C
:1021500002F0F2FD396D012002F0EEFD07F11403EB
:102160009C46022000F0D4F8B96C786802F0FCFEBE
:1021700007F114039C46012000F042F8396D02205B
:1021800002F0DAFD796B012002F0D6FD396B0120F7
:1021900002F0D2FDBB6C0E3B1A4607F114039C46BD
:1021A0001046FFF7C7FD396B012002F0C5FD796BC2
:1021B000012002F0C1FD396D022002F0BDFD07F1E2
:1021C00014039C46012000F0A3F8B96C786802F073
:1021D000CBFE07F114039C46002000F011F8BB6C05
:1021E0000A3B396D184602F0A7FD07F114039C461F
:1021F000002000F08DF800BF3837BD4680BD00BF1D
:1022000090B583B000AF78606446C7F800C0237D06
:10221000002B02D0237DFF2B43D17B68042B70D889
:1022200001A252F823F000BF3D2220005D222000D1
:10223000732220008922200095222000A3681946DD
:10224000032002F079FD63681946012002F074FD55
:1022500023681946012002F06FFD21E0A3681946AA
:10226000022002F069FD23681946012002F064FD96
:1022700016E0A3681946012002F05EFD23681946A6
:10228000012002F059FD0BE063681946012002F0BD
:1022900053FD05E023681946012002F04DFD00BF03
:1022A0002FE07B68042B2CD801A252F823F000BF4A
:1022B000C5222000D1222000DD222000E9222000BA
:1022C000F5222000114B1B680533104A136018E0FB
:1022D0000E4B1B6803330D4A136012E00B4B1B6857
:1022E00002330A4A13600CE0084B1B680133074AAB
:1022F000136006E0054B1B680133044A136000BFFE
:10230000FFE700BF0C37BD4690BD00BF701800202E
:1023100090B583B000AF78606446C7F800C0237DF5
:10232000002B02D0237DFF2B43D17B68042B70D878
:1023300001A252F823F000BF4D2320006D2320009E
:102340008323200099232000A52320002368194619
:10235000012002F0F1FC63681946012002F0ECFC58
:10236000A3681946032002F0E7FC21E02368194620
:10237000012002F0E1FCA3681946022002F0DCFC17
:1023800016E023681946012002F0D6FCA36819461E
:10239000012002F0D1FC0BE063681946012002F035
:1023A000CBFC05E023681946012002F0C5FC00BF04
:1023B0002FE07B68042B2CD801A252F823F000BF39
:1023C000D5232000E1232000ED232000F923200065
:1023D00005242000114B1B680533104A136018E0D8
:1023E0000E4B1B6803330D4A136012E00B4B1B6846
:1023F00002330A4A13600CE0084B1B680133074A9A
:10240000136006E0054B1B680133044A136000BFEC
:10241000FFE700BF0C37BD4690BD00BF701800201D
:1024200080B588B000AF7861396187ED030A7B60C1
:1024300013467B817B8997ED030A3A6979691846CF
:1024400002F0D0FD0023FB6112E0FB695A1C7B689F
:10245000F96901FB03F319460A4B1B680B440A494F
:1024600051F82220094941F82320FB690133FB611F
:102470007B89FA699A42E8DB00BF00BF2037BD467E
:1024800080BD00BF7018002078180020000000C038
:1024900080B485B000AF786039603B681A787B689B
:1024A0001A700023FB6011E03B681B781A46FB683A
:1024B000D31A1A463B681A44FB68013319467B68F5
:1024C0000B4412781A70FB680133FB603B681B7881
:1024D0001A46FB689342E7DB00BF00BF1437BD46D6
:1024E0005DF8047B704780B400AF00BFBD465DF867
:1024F000047B70470000000090B589B000AF7861A0
:10250000FB600B467B8213463B82274C3B46FA68B6
:102510007969184602F0DAFC22463B4693E803004C
:1025200082E80300204B5A683B8AD31A07EE903AA0
:10253000B8EEE77B1C4B1A687B8AD31A06EE903AFA
:10254000B8EEE66BB0EE461BB0EE470B26F042F855
:10255000B0EE406B9FED125B86EE057BF7EEC77B1E
:10256000C7ED077AD7ED077AF5EEC07AF1EE10FAEB
:102570000BD5D7ED077A9FED0D7A77EE877AFCEED3
:10258000E77A17EE903A9BB206E0D7ED077AFCEEB9
:10259000E77A17EE903A9BB218462437BD4690BDB5
:1025A000AF99D76C40DF913F482000200000B44332
:1025B00090B58BB000AF78613961FA60BB607B6920
:1025C000002B72D0BB6B07EE903AB8EEE77B9FED25
:1025D000AE6B27EE067BB0EE470B25F0FDFFB0EEAD
:1025E000407BF7EEC77BAA4BC3ED007AA84BD3ED37
:1025F000007AF5EEC07AF1EE10FA03DDA44BD3EDCC
:10260000007A04E0A24BD3ED007AF1EE677AF7EEA0
:10261000006A86EEA77A9F4B83ED007ABB6B002B96
:1026200004DDBB6B2D2B01DC012301E2BB6B2D2BE9
:1026300004DDBB6B5A2B01DC0223F9E1BB6B5A2B87
:1026400004DDBB6B872B01DC0323F1E1BB6B872B24
:1026500004DDBB6BB42B01DC0423E9E1BB6BB42BC1
:1026600004DDBB6BE12B01DC0523E1E1BB6BE12B5E
:1026700005DDBB6BB3F5877F01DC0623D8E1BB6BBF
:10268000B3F5877F05DDBB6BB3F59E7F01DA0723CA
:10269000CEE1BB6BB3F59E7FC0F2C981BB6BB3F5D6
:1026A000B47F00F3C4810823C2E139697A4C3B4608
:1026B000FA6B184602F00AFC22463B4693E80300F8
:1026C00082E80300744B1A68FB68D31A07EE903A4D
:1026D000F8EEE77AC7ED097A6F4B5A68BB68D31AF0
:1026E00007EE903AF8EEE77AC7ED087A684BD3ED3B
:1026F000007A97ED097A67EE277AC7ED077ABB6B08
:10270000002B2DDDBB6B2D2B2ADC97ED087AD7ED46
:10271000077AB4EEE77AF1EE10FA01D5002387E1EB
:1027200097ED087AD7ED077AB4EEE77AF1EE10FA72
:1027300014DB584B93ED007AD7ED097A37EE277A00
:10274000534BD3ED007A67EE277A97ED087AB4EE13
:10275000E77AF1EE10FA01D5012369E1022367E17E
:10276000BB6B2D2B2CDDBB6B5A2B29DC97ED087A2C
:10277000D7ED077AB4EEE77AF1EE10FA01D500232F
:1027800056E197ED087AD7ED077AB4EEE77AF1EEE5
:1027900010FA13DBD7ED097AB7EE007A37EE877AB5
:1027A0003B4BD3ED007A67EE277A97ED087AB4EECB
:1027B000E77AF1EE10FA01D5012339E1022337E17E
:1027C000BB6B5A2B2CDDBB6B872B29DC97ED087A72
:1027D000D7ED077AB4EEE77AF1EE10FA01DD0023C7
:1027E00026E197ED087AD7ED077AB4EEE77AF1EEB5
:1027F00010FA13D8D7ED097AB7EE007A37EE877A58
:10280000234BD3ED007A67EE277A97ED087AB4EE82
:10281000E77AF1EE10FA01DD012309E1022307E175
:10282000BB6B872B3ADDBB6BB42B37DC97ED087A9B
:10283000D7ED077AB4EEE77AF1EE10FA01DD002366
:10284000F6E097ED087AD7ED077AB4EEE77AF1EE85
:1028500010FA14D80F4B93ED007AD7ED097A37EEC2
:10286000277A0B4BD3ED007A67EE277A97ED087A3B
:10287000B4EEE77AF1EE10FA01DD0123D8E002238D
:10288000D6E000BFAFF30080AF99D76C40DF913F37
:10289000042300200823002048200020BB6BB42B19
:1028A0002DDDBB6BE12B2ADC97ED087AD7ED077A9B
:1028B000B4EEE77AF1EE10FA01D50223B8E097ED15
:1028C000087AD7ED077AB4EEE77AF1EE10FA14DB66
:1028D000594B93ED007AD7ED097A37EE277A574BAB
:1028E000D3ED007A67EE277A97ED087AB4EEE77AAF
:1028F000F1EE10FA01D501239AE0002398E0BB6BBA
:10290000E12B2DDDBB6BB3F5877F29DC97ED087AD2
:10291000D7ED077AB4EEE77AF1EE10FA01D502238B
:1029200086E097ED087AD7ED077AB4EEE77AF1EE14
:1029300010FA13DBD7ED097AB7EE007A37EE877A13
:102940003E4BD3ED007A67EE277A97ED087AB4EE26
:10295000E77AF1EE10FA01D5012369E0002367E080
:10296000BB6BB3F5877F2DDDBB6BB3F59E7F29DA9B
:1029700097ED087AD7ED077AB4EEE77AF1EE10FA20
:1029800001DD022354E097ED087AD7ED077AB4EE23
:10299000E77AF1EE10FA13D8D7ED097AB7EE007A9C
:1029A00037EE877A254BD3ED007A67EE277A97EDDD
:1029B000087AB4EEE77AF1EE10FA01DD012337E090
:1029C000002335E0BB6BB3F59E7F2EDBBB6BB3F50D
:1029D000B47F2ADC97ED087AD7ED077AB4EEE77A70
:1029E000F1EE10FA01DD022322E097ED087AD7ED2F
:1029F000077AB4EEE77AF1EE10FA14D80E4B93EDA5
:102A0000007AD7ED097A37EE277A0C4BD3ED007AAE
:102A100067EE277A97ED087AB4EEE77AF1EE10FACE
:102A200001DD012304E0002302E0032300E0002392
:102A300018462C37BD4690BD0823002004230020F3
:102A400090B58DB000AF78613961FA60B94A3B69E1
:102A500092339B00134404331B68FB62B54A3B6905
:102A60009C339B00134404331B68BB623B690133F6
:102A7000B04A03F582735B0013449B88FB84796939
:102A8000AD4C3B46FA68184602F020FA22463B4617
:102A900093E8030082E80300A74B1B68A54AB2F83D
:102AA00008229B1A07EE903AF8EEE77AC7ED087A0B
:102AB000A14B5B689F4AB2F80A229B1A07EE903A34
:102AC000F8EEE77AC7ED077A97ED0B7AD7ED087A3B
:102AD00067EE277AC7ED067AFB8C002B2BD0FB8C98
:102AE0002D2B28D897ED077AD7ED067AB4EEE77A42
:102AF000F1EE10FA01D5002370E197ED077AD7EDDA
:102B0000067AB4EEE77AF1EE10FA12DB97ED087A66
:102B1000D7ED0A7A37EE277AD7ED0B7A67EE277A68
:102B200097ED077AB4EEE77AF1EE10FA01D50123BA
:102B300054E1022352E1FB8C2D2B2BD9FB8C5A2B19
:102B400028D897ED077AD7ED067AB4EEE77AF1EE5A
:102B500010FA01D5002341E197ED077AD7ED067A07
:102B6000B4EEE77AF1EE10FA12DBD7ED087AB7EEA1
:102B7000007A37EE877AD7ED0B7A67EE277A97EDF2
:102B8000077AB4EEE77AF1EE10FA01D5012325E1D8
:102B9000022323E1FB8C5A2B2BD9FB8C872B28D8C3
:102BA00097ED077AD7ED067AB4EEE77AF1EE10FAF0
:102BB00001DD002312E197ED077AD7ED067AB4EE36
:102BC000E77AF1EE10FA12D8D7ED087AB7EE007A6C
:102BD00037EE877AD7ED0B7A67EE277A97ED077A8B
:102BE000B4EEE77AF1EE10FA01DD0123F6E00223FC
:102BF000F4E0FB8C872B2BD9FB8CB42B28D897EDDA
:102C0000077AD7ED067AB4EEE77AF1EE10FA01DD35
:102C10000023E3E097ED077AD7ED067AB4EEE77A82
:102C2000F1EE10FA12D897ED087AD7ED0A7A37EE5E
:102C3000277AD7ED0B7A67EE277A97ED077AB4EE0D
:102C4000E77AF1EE10FA01DD0123C7E00223C5E0C7
:102C5000FB8CB42B2BD9FB8CE12B28D897ED077A72
:102C6000D7ED067AB4EEE77AF1EE10FA01D5022339
:102C7000B4E097ED077AD7ED067AB4EEE77AF1EE95
:102C800010FA12DB97ED087AD7ED0A7A37EE277A39
:102C9000D7ED0B7A67EE277A97ED077AB4EEE77AED
:102CA000F1EE10FA01D5012398E0002396E0FB8CA9
:102CB000E12B2CD9FB8CB3F5877F28D897ED077AC9
:102CC000D7ED067AB4EEE77AF1EE10FA01D50223D9
:102CD00084E097ED077AD7ED067AB4EEE77AF1EE65
:102CE00010FA12DBD7ED087AB7EE007A37EE877A62
:102CF000D7ED0B7A67EE277A97ED077AB4EEE77A8D
:102D0000F1EE10FA01D5012368E0002366E0FB8CA8
:102D1000B3F5877F30D9FB8CB3F59E7F2CD297ED2E
:102D2000077AD7ED067AB4EEE77AF1EE10FA05DD10
:102D3000022353E05C2000204820002097ED077A12
:102D4000D7ED067AB4EEE77AF1EE10FA12D8D7EDA5
:102D5000087AB7EE007A37EE877AD7ED0B7A67EE0E
:102D6000277A97ED077AB4EEE77AF1EE10FA01DDF3
:102D7000012333E0002331E0FB8CB3F59E7F2CD39D
:102D8000FB8CB3F5B47F28D897ED077AD7ED067A98
:102D9000B4EEE77AF1EE10FA01DD02231EE097EDC2
:102DA000077AD7ED067AB4EEE77AF1EE10FA12D888
:102DB00097ED087AD7ED0A7A37EE277AD7ED0B7AB6
:102DC00067EE277A97ED077AB4EEE77AF1EE10FA1C
:102DD00001DD012302E0002300E00323184634371D
:102DE000BD4690BD90B58DB000AF78613961FA6095
:102DF000BB60BA4AFB6892339B00134404331B68E0
:102E0000FB62B64AFB689C339B00134404331B6887
:102E1000BB62FB680133B14A03F582735B00134464
:102E20009B88FB847969AE4C3846BB683A6902F0EE
:102E300075F822463B4693E8030082E80300A84B5E
:102E40001B68A64AB2F808229B1A07EE903AF8EEE1
:102E5000E77AC7ED087AA24B5B68A04AB2F80A226B
:102E60009B1A07EE903AF8EEE77AC7ED077A97EDEE
:102E70000B7AD7ED087A67EE277AC7ED067AFB8CD6
:102E8000002B2BD0FB8C2D2B28D897ED077AD7ED74
:102E9000067AB4EEE77AF1EE10FA01D5002371E17B
:102EA00097ED077AD7ED067AB4EEE77AF1EE10FAED
:102EB00012DB97ED087AD7ED0A7A37EE277AD7ED4D
:102EC0000B7A67EE277A97ED077AB4EEE77AF1EEA0
:102ED00010FA01D5012355E1022353E1FB8C2D2B80
:102EE0002BD9FB8C5A2B28D897ED077AD7ED067A89
:102EF000B4EEE77AF1EE10FA01D5002342E197ED46
:102F0000077AD7ED067AB4EEE77AF1EE10FA12DB23
:102F1000D7ED087AB7EE007A37EE877AD7ED0B7ADD
:102F200067EE277A97ED077AB4EEE77AF1EE10FABA
:102F300001D5012326E1022324E1FB8C5A2B2BD956
:102F4000FB8C872B28D897ED077AD7ED067AB4EE5D
:102F5000E77AF1EE10FA01DD002313E197ED077A2D
:102F6000D7ED067AB4EEE77AF1EE10FA12D8D7ED83
:102F7000087AB7EE007A37EE877AD7ED0B7A67EEEC
:102F8000277A97ED077AB4EEE77AF1EE10FA01DDD1
:102F90000123F7E00223F5E0FB8C872B2BD9FB8C78
:102FA000B42B28D897ED077AD7ED067AB4EEE77AF6
:102FB000F1EE10FA01DD0023E4E097ED077AD7ED9A
:102FC000067AB4EEE77AF1EE10FA12D897ED087AA5
:102FD000D7ED0A7A37EE277AD7ED0B7A67EE277AA4
:102FE00097ED077AB4EEE77AF1EE10FA01DD0123EE
:102FF000C8E00223C6E0FB8CB42B2BD9FB8CE12B61
:1030000028D897ED077AD7ED067AB4EEE77AF1EE95
:1030100010FA01D50223B5E097ED077AD7ED067ACD
:10302000B4EEE77AF1EE10FA12DB97ED087AD7EDFD
:103030000A7A37EE277AD7ED0B7A67EE277A97ED83
:10304000077AB4EEE77AF1EE10FA01D5012399E0A0
:10305000002397E0FB8CE12B2CD9FB8CB3F5877F09
:1030600028D897ED077AD7ED067AB4EEE77AF1EE35
:1030700010FA01D5022385E097ED077AD7ED067A9D
:10308000B4EEE77AF1EE10FA12DBD7ED087AB7EE7C
:10309000007A37EE877AD7ED0B7A67EE277A97EDCD
:1030A000077AB4EEE77AF1EE10FA01D5012369E070
:1030B000002367E0FB8CB3F5877F31D9FB8CB3F538
:1030C0009E7F2DD297ED077AD7ED067AB4EEE77A98
:1030D000F1EE10FA06DD022354E000BF5C20002070
:1030E0004820002097ED077AD7ED067AB4EEE77A0C
:1030F000F1EE10FA12D8D7ED087AB7EE007A37EE73
:10310000877AD7ED0B7A67EE277A97ED077AB4EED8
:10311000E77AF1EE10FA01DD012333E0002331E01C
:10312000FB8CB3F59E7F2CD3FB8CB3F5B47F28D8F2
:1031300097ED077AD7ED067AB4EEE77AF1EE10FA5A
:1031400001DD02231EE097ED077AD7ED067AB4EE93
:10315000E77AF1EE10FA12D897ED087AD7ED0A7AED
:1031600037EE277AD7ED0B7A67EE277A97ED077A55
:10317000B4EEE77AF1EE10FA01DD012302E000235C
:1031800000E0032318463437BD4690BD80B590B0AB
:1031900000AF78613961FA60BB6087ED010AC7ED65
:1031A000000A7B6D1B78FB637B6D01331B78BB636F
:1031B00002237B633B6D002B40F09381B7E0BB6B38
:1031C0003B6234E078693B691B78FA6C1946FFF77B
:1031D00037FC0346FB77FB7F002B02D0FB7F012BE4
:1031E00012D13B691B78002B0CD13B6901221A706C
:1031F000974B1B685A1C96490A609649FA6841F831
:10320000232014E0012373E13B691B78002B05D1D7
:103210008F4B1B6801338E4A136008E08C4B1B6890
:103220005A1C8B490A608B49FA6841F82320BB6B12
:103230005A1EBA63002BC5D1FB6B002B3CD07B6BB5
:103240005A1C7A631A467B6D13441B78BB633B6937
:103250001B78012B30D197ED010ABA68F968B86B79
:1032600001F0C0FE00233B631FE07869784B1A68C9
:103270003B6B134419463B691B781A46FB6CFFF7FE
:10328000B1FD0346FB77FB7F022B14D13B6B5A1C2D
:103290006F4B19683B6B0B446F4951F822206D4905
:1032A00041F823203B6B01333B636B4B1A683B6B4C
:1032B0009A42DAD800E000BF654B1A68FB6C1344F1
:1032C000634A13603B691B78012B30D197ED000AEC
:1032D000BA6CF968386A01F085FE0023FB6221E0D0
:1032E00078695B4B1A68FB6AD31A013B19463B6944
:1032F0001B781A46FB6CFFF775FD0346FB77FB7FD7
:10330000022B14D1FB6A5A1C514B1968FB6ACB1A69
:10331000013B514951F822204E4941F82320FB6AD4
:103320000133FB624C4B1A68FB6A9A42D8D8FB6B9C
:103330005A1EFA63002B7FF442AFD8E0BB6B3B62AE
:103340003BE078693B691B78FA6C1946FFF778FB1C
:103350000346FB77FB7F002B02D0FB7F012B15D1AF
:103360003B691B78002B0FD13B6901221A70384B47
:103370001B683849FA6841F82320354B1A68FB6C02
:103380001344334A136018E00123B1E03B691B7812
:10339000002B06D12E4B1A68FB6C13442C4A136089
:1033A0000BE02B4B1B682B49FA6841F82320284B74
:1033B0001A68FB6C1344264A1360BB6B5A1EBA632F
:1033C000002BBED1FB6B002B49D07B6B5A1C7A6360
:1033D0001A467B6D13441B78BB633B691B78012B3A
:1033E0003DD197ED000ABA6CF968B86B01F0FAFDAF
:1033F0000023BB6225E07869BB6AFA6C03FB02F22A
:10340000134B1B68134419463B691B781A46FB6C27
:10341000FFF7E8FC0346FB77FB7F022B1ED1BB6A5C
:103420005A1CBB6AF96C03FB01F1094B1B680B4486
:10343000094951F82220074941F82320BB6A01338A
:10344000BB62054B1A68BB6A9A42D4D807E000BF3A
:1034500070180020000000C07818002000BF264B24
:103460001B680133244A13603B691B78012B38D158
:1034700097ED010ABA68F968386A01F0B3FD0023D4
:103480007B6229E078691C4B1A687B6A0133194614
:10349000FB6C01FB03F3D31A19463B691B781A46F0
:1034A000FB6CFFF79FFC0346FB77FB7F002B18D1DB
:1034B0007B6A5A1C104B19687B6A01331846FB6CF7
:1034C00000FB03F3CB1A0D4951F822200C4941F8B7
:1034D00023207B6A01337B62084B1A687B6A9A421D
:1034E000D0D8FB6B5A1EFA63002B7FF427AF002362
:1034F00018464037BD4680BD70180020781800205F
:10350000000000C080B590B000AF78613961FA600A
:10351000BB6087ED010AC7ED000A7B6D1B78FB637A
:103520007B6D01331B78BB6302237B633B6D002BF8
:1035300040F03B8192E0BB6B3B6234E078693B69D1
:103540001B78FA6C1946FFF77BFA0346FB77FB7F83
:10355000002B02D0FB7F012B12D13B691B78002B83
:103560000CD13B6901221A70954B1B685A1E944975
:103570000A609449FA6841F8232014E001231BE112
:103580003B691B78002B05D18D4B1B68013B8C4A96
:10359000136008E08A4B1B685A1E89490A608949F2
:1035A000FA6841F82320BB6B5A1EBA63002BC5D1C1
:1035B000FB6B002B29D07B6B5A1C7A631A467B6D00
:1035C00013441B78BB633B691B78012B1DD197ED1E
:1035D000000ABA6CF968B86B01F004FD00233B6384
:1035E0000EE03B6B5A1C764B19683B6BCB1A764945
:1035F00051F82220734941F823203B6B01333B6390
:10360000714B1A683B6B9A42EBD86D4B1A68FB6C96
:1036100013446B4A13603B691B78012B1ED197ED55
:10362000010ABA68F968386A01F0DCFC0023FB6221
:103630000FE0FB6A5A1C624B1968FB6A0B440133AA
:10364000614951F822205F4941F82320FB6A013388
:10365000FB625D4B1A68FB6A9A42EAD8FB6B5A1E02
:10366000FA63002B7FF467AFA5E0BB6B3B623BE0E6
:1036700078693B691B78FA6C1946FFF7E1F9034654
:10368000FB77FB7F002B02D0FB7F012B15D13B6921
:103690001B78002B0FD13B6901221A70484B1B6825
:1036A0004849FA6841F82320454B1A68FB6C1344DB
:1036B000434A136018E001237EE03B691B78002B2E
:1036C00006D13F4B1A68FB6C13443D4A13600BE074
:1036D0003B4B1B683B49FA6841F82320384B1A687A
:1036E000FB6C1344364A1360BB6B5A1EBA63002B43
:1036F000BED1FB6B002B2CD07B6B5A1C7A631A4615
:103700007B6D13441B78BB633B691B78012B20D175
:1037100097ED010ABA68F968B86B01F063FC002301
:10372000BB6211E0BB6A5A1CBB6AF96C03FB01F176
:10373000234B1B680B44244951F82220214941F8AE
:103740002320BB6A0133BB621F4B1A68BB6A9A42D3
:10375000E8D81B4B1B68013B194A13603B691B7877
:10376000012B22D197ED000ABA6CF968386A01F092
:1037700039FC00237B6213E07B6A5A1C104B1968EA
:103780007B6A01331846FB6C00FB03F3CB1A0E492E
:1037900051F822200B4941F823207B6A01337B62D8
:1037A000094B1A687B6A9A42E6D8FB6B5A1EFA6389
:1037B000002B7FF45AAF002318464037BD4680BD2A
:1037C00070180020000000C0781800202DE9F04794
:1037D0008AB000AF78606646C7F800C06B469A466C
:1037E0007B687B627A4BB3F80C120B46013B7B6122
:1037F0008BB20022984691464FF000024FF0000332
:103800004FEAC90343EA58734FEAC8028BB2002259
:103810001C4615464FF000024FF00003EB0043EA50
:103820005473E2000B460733DB08DB00ADEB030DFE
:103830006B4600333B6100233B62BDE0654B1B6878
:10384000654A52F82330F2689A421AD10023FB618C
:1038500010E0B368184673681A46F969FFF7F0F884
:10386000034619463A69FB6913440A461A70FB6914
:103870000133FB61564BB3F80C321A46FB69934295
:10388000E7DB00BF534B1B68534A52F82330F26802
:103890009A4263D10023BB6152E0BB6902334C4AB8
:1038A00003F582735B0013449B881946BB6901339F
:1038B000474A03F582735B0013449B88CB1AFB6075
:1038C000FB68002B02DDFB68B42B03DDFB6813F102
:1038D000B40F18DA3A69BB6913441B78002B2BD15B
:1038E000BB6901333A69D35C022B25D1BB69013333
:1038F000384A1268364988339B000B445B68364966
:1039000041F8223023E03A69BB6913441B78002B4D
:1039100005D0BB6901333A69D35C022B0DD1BB6979
:1039200001332C4A12682A4988339B000B445B6898
:10393000294941F822300AE000BFBB690133BB616D
:10394000234BB3F80C32013BBA699A42A5DB214BF9
:103950001B6801331F4A136001233B621D4B1B6828
:103960001D4A52F82330F2689A420ED17B6A002B2E
:1039700005D1184B1B68013B164A136022E07B6A95
:10398000013B7B6200233B627CE7124B1B680133E7
:10399000104A13603B6A012B0ED100233B627B6A05
:1039A000002B03DD7B6A013B7B6205E0094B1B6852
:1039B000013B084A136005E07B6A5A1E7A62002BBD
:1039C0007FF43CAFD54600BF2837BD46BDE8F08741
:1039D0005C20002070180020000000C02DE9F04796
:1039E000B8B006AFF860B9607A603B6007F1E803F1
:1039F000BB62FB683B62D7F8F430BB61D7F8F830A4
:103A00007B620023C7F8C4300023C7F8C030D7F862
:103A1000EC301B0CA7F85630D7F8EC309AB2D7F838
:103A2000C430D31A3B657B6A002B03D07B6AC7F88E
:103A3000BC3003E0D7F8FC30C7F8BC30BB68FB6192
:103A40003B68C7F8B830D7F8E830C7F8B4303A6DFB
:103A5000D7F8F0309A4240F075813B6D002B00F0B2
:103A60007181D7F8F030002B00F06C8100BFD7F8DF
:103A7000EC309AB2D7F8C430D31A3B653B6D5B0883
:103A8000FB640023BB64FB6CAC4AA2FB03235B0812
:103A90007B643B6D5A083B681A44D7F8C430002B4E
:103AA00000DA01335B101344C7F8B8303B6D03F004
:103AB0000103002B04D0D7F8B8300133C7F8B83071
:103AC000D7F8E830C7F8B430D7F8B83007EE903AF6
:103AD000F8EE677AC7ED2C7AD7F8B43007EE903A53
:103AE000F8EE677AC7ED2B7AD7F8B83007EE903A40
:103AF000F8EE677AC7ED107AD7F8B43007EE903A4F
:103B0000B8EE677AFB6C07EE903AF8EE677A77EEDC
:103B1000277AC7ED0F7A97ED0F7AD7ED2B7A77EEEC
:103B2000677AB7EEE77AB0EE001BB0EE470B24F0F1
:103B3000BBFDB0EE407BF7EEC77BC7ED2A7A97ED71
:103B40002C7AD7ED107A77EE677AB7EEE77AB0EE97
:103B5000001BB0EE470B24F0A7FDB0EE407BF7EE64
:103B6000C77BC7ED0E7AFA6CBB6C134407EE903A34
:103B7000B8EE677BB0EE001BB0EE470B24F094FD6F
:103B8000B0EE407BF7EEC77BC7ED0D7A0023C7F898
:103B9000A4300023C7F8A0307B6CDAB2684B1A70EF
:103BA000D7ED2C7AB7EE007A77EE877AC7ED2C7ACC
:103BB000D7F8A4300133C7F8A43097ED2C7AD7EDAD
:103BC000107A77EE677AB7EEE77AB0EE001BB0EEC8
:103BD000470B24F069FDB0EE407BF7EEC77BC7EDE5
:103BE0000E7A97ED0E7AD7ED2A7A77EE277A97ED4F
:103BF0000D7AB4EEE77AF1EE10FA2BD5D7ED2B7AE9
:103C0000B7EE007A77EE877AC7ED2B7A97ED0F7AC9
:103C1000D7ED2B7A77EE677AB7EEE77AB0EE001B36
:103C2000B0EE470B24F040FDB0EE407BF7EEC77BD3
:103C3000C7ED2A7AD7F8A430DAB2D7F8A030591CE9
:103C4000C7F8A0100133013AD1B23D4AD154012343
:103C5000C7F8A430D7F8A0307A6C9A42A0D8FEF703
:103C600042FC374B1B78A7F89E300023C7F89830EA
:103C700012E0334B1B781A46D7F89830D31A304AE3
:103C8000D35C9AB2B7F89E301344A7F89E30D7F8A9
:103C900098300133C7F89830294B1B781A46D7F86B
:103CA00098309342E5DBB7F89E305B00A7F89E3072
:103CB000B7F89E30D7F8F0209A4239D3B7F89E3043
:103CC000D7F8F020D31A5B08D7F8B4201344C7F80C
:103CD000B430B7F89E305B089BB219463A68D7F803
:103CE000B830D31A0B44D7F8B8201344C7F8B8300B
:103CF000D7F8E830C7F8B430114AB7F89E30A2F8C8
:103D00000432D7F8B8309AB20D4BA3F808220C4B06
:103D1000B3F804325B089AB2D7F8B4309BB21344BC
:103D20009AB2074BA3F80A220123C7F8C03012E069
:103D3000D7F8C4300133C7F8C43098E6ABAAAAAAB2
:103D40005C2000203B6D002B40F0D686D7F8F03089
:103D5000002B40F0D1868A4B1B78591C6B469A4643
:103D60004B1E3B630A460023904699464FF00002E3
:103D70004FF000034FEAC90343EA58734FEAC80201
:103D80000A46002314461D464FF000024FF0000380
:103D9000EB0043EA5473E2000B460733DB08DB0019
:103DA000ADEB030D06AB0033FB627549F86AFEF715
:103DB0006FFB386AF969D7F8B430D7F8B82001F04A
:103DC0006BF8B7F85630052B40F0DC80D7F8C030E0
:103DD000002B00F0D7800023FB75694BD3ED7D7A73
:103DE000674B93ED7E7A386ABA6907F11701644B25
:103DF000039300230293BB680193D7F8BC30009370
:103E0000F0EE470AB0EE670AD7F8FC30FFF7BEF9CC
:103E10000346002B40F0A98001F00CF8FB695B42DF
:103E2000184601F027F8564BD3ED7D7AB869012387
:103E30000122B0EE670AD7F8FC10FEF7F1FA01F0A4
:103E400009F84F4BD3ED7D7A4D4B93ED7E7A386A6E
:103E5000BA6907F11701FB6A039301230293BB6858
:103E60000193D7F8BC300093F0EE470AB0EE670A32
:103E7000D7F8FC30FFF78AF90346002B77D1404B87
:103E8000D3ED7D7A3E4B5B789AB2FB69B869B0EEB0
:103E9000670AD7F8FC10FEF7C3FA4FF0FF3000F0C6
:103EA000E9FF374BD3ED7D7A354B93ED7E7A386A57
:103EB000BA6907F11701324B039301230293BB68E0
:103EC0000193D7F8BC300093F0EE470AB0EE670AD2
:103ED000D7F8FC30FFF716FB0346002B49D100F062
:103EE000A9FF012000F0C6FF254BD3ED7D7AB8690C
:103EF00001230122B0EE670AD7F8FC10FEF790FA12
:103F000000F0A8FF1E4BD3ED7D7A1D4B93ED7E7A1A
:103F1000386ABA6907F11701FB6A03930023029319
:103F2000BB680193D7F8BC300093F0EE470AB0EEBF
:103F3000670AD7F8FC30FFF7E5FA0346002B1AD1E1
:103F40000F4BD3ED7D7A0E4B5B789AB2B8694FF088
:103F5000FF33B0EE670AD7F8FC10FEF761FAFB6991
:103F60005B42184600F086FF06E000BF04E000BF99
:103F700002E000BF00E000BFD54600F0BEBD00BFBC
:103F80005C200020AE4BD3ED7D7AAD4B93ED7E7A75
:103F9000B869AB4B019300230093BB68F0EE470A6E
:103FA000B0EE670AD7F8BC20D7F8FC1001F08AF809
:103FB00000F040FFFB695B42184600F05BFFA04B3E
:103FC000D3ED7D7AB86901230122B0EE670AD7F8F4
:103FD000FC10FEF725FA00F03DFF994BD3ED7D7AFA
:103FE000974B93ED7E7AB869FB6A019301230093A6
:103FF000BB68F0EE470AB0EE670AD7F8BC20D7F8E6
:10400000FC1001F05FF88E4BD3ED7D7A8C4B5B7822
:104010009AB2FB69B869B0EE670AD7F8FC10FEF7F0
:10402000FFF94FF0FF3000F025FF854BD3ED7D7A8F
:10403000834B93ED7E7AB869814B01930123009302
:10404000BB68F0EE470AB0EE670AD7F8BC20D7F895
:10405000FC1001F039FA00F0EDFE012000F00AFF3B
:10406000774BD3ED7D7AB86901230122B0EE670A60
:10407000D7F8FC10FEF7D4F900F0ECFE704BD3ED4E
:104080007D7A6F4B93ED7E7AB869FB6A01930023CA
:104090000093BB68F0EE470AB0EE670AD7F8BC2081
:1040A000D7F8FC1001F010FA654BD3ED7D7A644B24
:1040B0005B789AB2B8694FF0FF33B0EE670AD7F871
:1040C000FC10FEF7ADF9FB695B42184600F0D2FE2A
:1040D0005B4BD3ED7D7A5A4B93ED7E7AB869584BA2
:1040E000019300230093BB68F0EE470AB0EE670A25
:1040F000D7F8BC20D7F8FC1001F0DCFA00F09AFEEB
:10410000FB69184600F0B6FE4D4BD3ED7D7AFB6996
:104110005B42B8690122B0EE670AD7F8FC10FEF7DF
:104120007FF900F097FE464BD3ED7D7A444B93ED3B
:104130007E7AB869FB6A019301230093BB68F0EEB5
:10414000470AB0EE670AD7F8BC20D7F8FC1001F098
:10415000B1FA3B4BD3ED7D7A394B5B789AB2FB6970
:104160005B42B869B0EE670AD7F8FC10FEF758F961
:10417000012000F07FFE324BD3ED7D7A304B93ED82
:104180007E7AB8692E4B019301230093BB68F0EE51
:10419000470AB0EE670AD7F8BC20D7F8FC1001F048
:1041A0009DF800F047FE4FF0FF3000F063FE244B17
:1041B000D3ED7D7AB86901230122B0EE670AD7F802
:1041C000FC10FEF72DF900F045FE1D4BD3ED7D7A76
:1041D0001B4B93ED7E7AB869FB6A01930023009331
:1041E000BB68F0EE470AB0EE670AD7F8BC20D7F8F4
:1041F000FC1001F073F8124BD3ED7D7A104B5B7815
:104200009AB2B8690123B0EE670AD7F8FC10FEF73E
:1042100007F97B6A002B00F070810023A7F8943027
:10422000386AF969D7F8B430D7F8B82000F034FE0E
:104230000023A7F896300023C7F890303DE000BF78
:104240005C200020D7F890300133B64AD35C1A4680
:10425000FB699B1A184600F00DFE00F0EBFDD7F845
:1042600090300133AF4AD35C1A46AF4B1B681344FE
:10427000AD4A1360D7F89030002B07DDB7F89630C1
:104280005B007A6A1146184600F084FE00F0E2FDF9
:10429000B7F894300133A7F89430D7F89030013351
:1042A000A04AD35C9AB2B7F896301344A7F8963078
:1042B000D7F890300133C7F890309A4B1B781A46E4
:1042C000D7F890309342BDDB0023C7F88C305AE01A
:1042D000B7F896300133A7F896304FF0FF3000F072
:1042E000C9FD0023C7F888303BE0FB69184600F0A1
:1042F000C1FD00F09FFD8B4B1B781A46D7F88C3020
:10430000D31A884AD35C013BD7F888209A420ED151
:10431000854B1B680133844A1360B7F89630013B24
:104320005B007A6A1146184600F034FE0DE07E4BC1
:104330001B6802337C4A1360B7F89630023B5B007F
:104340007A6A1146184600F025FE00F083FDB7F8A2
:1043500094300133A7F89430D7F888300133C7F888
:104360008830704B1B781A46D7F88C30D31A6D4AB8
:10437000D35C1A46D7F888309342B6DBD7F88C3036
:104380000133C7F88C30674B1B781A46D7F88C304E
:1043900093429DDBB7F894305B009BB2013BA7F8DA
:1043A0009430B7F89420D7F8B4301344386AF969D8
:1043B000D7F8B82000F070FD0023A7F8963000234E
:1043C000C7F8843035E0FB695B42D7F884200132BE
:1043D00054498A5C9B1A184600F04CFD00F02AFDF7
:1043E000D7F8843001334F4AD35C1A464E4B1B68D2
:1043F00013444D4A1360D7F88430002B07DDB7F81B
:1044000096305B007A6A1146184600F0C3FD00F052
:1044100021FDD7F884300133424AD35C9AB2B7F811
:1044200096301344A7F89630D7F884300133C7F894
:1044300084303C4B1B781A46D7F884309342C2DB59
:104440000023C7F8803051E0B7F896300133A7F861
:1044500096304FF0FF3000F00DFD0023FB6734E095
:10446000FB695B42184600F005FD00F0E3FC2D4BB4
:104470001B781A46D7F88030D31A2A4AD35C013BFE
:10448000FA6F9A420ED1284B1B680133264A1360FB
:10449000B7F89630013B5B007A6A1146184600F087
:1044A00079FD0DE0204B1B6802331F4A1360B7F8FB
:1044B0009630023B5B007A6A1146184600F06AFDAE
:1044C00000F0C8FCFB6F0133FB67164B1B781A46E4
:1044D000D7F88030D31A134AD35C1A46FB6F934245
:1044E000BEDBD7F880300133C7F880300D4B1B7826
:1044F0001A46D7F880309342A6DBB7F85630042B23
:1045000040F0F882D7F8C030002B00F0F38200238F
:10451000BB670023A7F876300023A7F87430002388
:104520003B675DE15C200020701800203B6F013389
:10453000894A03F582735B0013449B882D2B12D9A3
:104540003B6F0133844A03F582735B0013449B88FD
:10455000592B08D8804BB3F80432952B7BD84FF0F9
:10456000FF33BB6777E03B6F01337B4A03F5827310
:104570005B0013449B88702B0CD93B6F0133764A48
:1045800003F582735B0013449B889D2B02D80223A2
:10459000BB6760E03B6F01336F4A03F582735B00DA
:1045A00013449B88C82B0CD93B6F01336A4A03F52F
:1045B00082735B0013449B88F72B02D80323BB67ED
:1045C00049E03B6F0133644A03F582735B00134497
:1045D0009B88B3F5877F0ED33B6F01335E4A03F5AB
:1045E00082735B0013449B88B3F5927F03D84FF02E
:1045F000FF33BB672FE03B6F0133574A03F58273EC
:104600005B0013449B88B3F5927F24D93B6F013341
:10461000514A03F582735B0013449B88B3F5A97F6D
:1046200019D84D4BB3F80432642B08D94A4BB3F870
:104630000432B3F5827F02D20123BB670BE0464B05
:10464000B3F80432B3F5827F02D90223BB6702E0DC
:104650004FF0FF33BB673B6F002B3BD13E4BB3F8B2
:1046600008023D4BB3F80A423B4BB3F804321A1F21
:10467000BB6FD31A002B00DA01335B109BB2013BF6
:104680009DB23B6F0133344A03F582735B001344E0
:104690009A88314BD3ED7D7A2F4B93ED7E7A3B6F29
:1046A00001332D4988339B000B445968BB69049141
:1046B000D7F8BC100391B968029101930092F0EE13
:1046C000470AB0EE670A2B4622460146002001F059
:1046D00007FD82E0204BB3F80C32013B3A6F9A425F
:1046E0003CD11D4BB3F808421B4BB3F80A521A4B8E
:1046F000B3F804321A1FBB6FD31A002B00DA013350
:104700005B109BB2013B9EB23B6F0133124A03F533
:1047100082735B0013449A880F4BD3ED7D7A0E4B66
:1047200093ED7E7A0C493B6F88339B000B445968AC
:10473000BB69D7F8BC0004900391B968029101935A
:104740000092F0EE470AB0EE670A33462A46214649
:10475000002001F0C5FC40E05C200020B84BB3F81D
:104760000842B74BB3F80A52B54BB3F804321A1FDC
:10477000BB6FD31A002B00DA01335B109BB2013BF5
:104780009EB23B6F0133AE4A03F582735B00134464
:104790009A88AB4BD3ED7D7AA94B93ED7E7AA849ED
:1047A0003B6F88339B000B4459683B6F0133A4482F
:1047B00088339B0003445868BB6904900391B9682F
:1047C000029101930092F0EE470AB0EE670A334679
:1047D0002A462146002001F083FC3B6F01333B67F2
:1047E000974BB3F80C321A463B6F9342FFF69EAEDE
:1047F000386AF969D7F8B430D7F8B82000F04CFB24
:104800000023FB6641E0FB6E01338D4AD35C1A4600
:10481000FB699B1A184600F02DFB00F00BFBFB6EAA
:104820000133874AD35C1A4607F118039C461046A9
:1048300000F06AF9FB6E002B08DDB7F876305B00FC
:1048400007F1180294461846FEF7C0FFFB6E0133CD
:104850007B4AD35C1A4607F118039C46104600F0C9
:1048600053F900F0F7FAB7F874300133A7F8743051
:10487000FB6E0133724AD35C9AB2B7F876301344B8
:10488000A7F87630FB6E0133FB666D4B1B781A463A
:10489000FB6E9342B7DB0023BB6661E0B7F876306E
:1048A0000133A7F876304FF0FF3000F0E3FA002331
:1048B0007B6647E0FB69184600F0DCFA00F0BAFAC4
:1048C0005F4B1B781A46BB6ED31A5D4AD35C013B23
:1048D0007A6E9A4216D107F118039C46012000F027
:1048E00013F9B7F87630013B5B0007F118029446E4
:1048F0001846FEF76BFF07F118039C46012000F0F5
:1049000003F915E007F118039C46022000F0FCF8BB
:10491000B7F87630023B5B0007F118029446184660
:10492000FEF754FF07F118039C46022000F0ECF854
:1049300000F090FAB7F874300133A7F874307B6E4A
:1049400001337B663E4B1B781A46BB6ED31A3C4A3A
:10495000D35C1A467B6E9342ACDBBB6E0133BB6605
:10496000374B1B781A46BB6E934297DBB7F874300F
:104970005B009BB2013BA7F87430B7F87420D7F8FE
:10498000B4301344386AF969D7F8B82000F084FAD3
:104990000023A7F8763000233B663CE0FB695B42CE
:1049A0003A6E013226498A5C9B1A184600F062FA78
:1049B00000F040FA3B6E0133214AD35C1A4607F1FE
:1049C00018039C46104600F09FF83B6E002B08DD54
:1049D000B7F876305B0007F1180294461846FEF7E8
:1049E000F5FE3B6E0133164AD35C1A4607F11803F5
:1049F0009C46104600F088F800F02CFA3B6E01331C
:104A00000F4AD35C9AB2B7F876301344A7F87630E1
:104A10003B6E01333B660A4B1B781A463B6E934252
:104A2000BCDB0023FB655FE0B7F876300133A7F805
:104A300076304FF0FF3000F01DFA0023BB6545E0F3
:104A40005C200020FB695B42184600F013FA00F07E
:104A5000F1F92C4B1B781A46FB6DD31A294AD35C0B
:104A6000013BBA6D9A4216D107F118039C4601200A
:104A700000F04AF8B7F87630013B5B0007F1180206
:104A800094461846FEF7A2FE07F118039C46012043
:104A900000F03AF815E007F118039C46022000F0F8
:104AA00033F8B7F87630023B5B0007F11802944602
:104AB0001846FEF78BFE07F118039C46022000F013
:104AC00023F800F0C7F9BB6D0133BB650D4B1B78B4
:104AD0001A46FB6DD31A0B4AD35C1A46BB6D934240
:104AE000B0DBFB6D0133FB65064B1B781A46FB6D93
:104AF000934299DBD54600E000BFC837BD46BDE80C
:104B0000F08700BF5C2000202DE9F04F8BB000AF94
:104B1000F8606446C7F808C06B467B60FB687B6240
:104B2000714BB3F80C120B46013BBB618BB20022F8
:104B30009A4693464FF000024FF000034FEA4B13A2
:104B400043EADA634FEA4A128BB200229846914652
:104B50004FF000024FF000034FEA491343EAD863D5
:104B60004FEA48120B469B000733DB08DB00ADEB36
:104B7000030D6B4603339B089B007B61A6E000237B
:104B80003B620FE0A368184663681A46396AFDF76E
:104B900057FF034619467B693A6A43F822103B6A7D
:104BA00001333B62504BB3F80C321A463B6A9342D6
:104BB000E8DB0023FB617CE0FB6902334A4A03F532
:104BC00082735B0013449B881946FB690133464A94
:104BD00003F582735B0013449B88CB1A3B613B69EE
:104BE000002B02DD3B69B42B03DD3B6913F1B40FED
:104BF0002DDA7B69FA6953F82230002B55D1FB6915
:104C00005A1C7B6953F82230022B4ED1FB690133C9
:104C1000354A88339B0013445E68344B1B68344A22
:104C200052F823202368E168184602F027FEF0EED0
:104C3000407A2E4B1D682368B0EE670A314618464D
:104C400002F076FD03462A4A42F8253039E07B69B6
:104C5000FA6953F82230002B06D0FB695A1C7B6995
:104C600053F82230022B21D1FB6901331E4A8833CD
:104C70009B0013445E681D4B1B681D4A52F823209D
:104C80002368E168184602F0F9FDF0EE407A174B10
:104C90001D682368B0EE670A3146184602F048FDE9
:104CA0000346134A42F825300BE000BFFB6901338D
:104CB000FB610D4BB3F80C32013BFA699A42FFF6E7
:104CC0007BAF0A4B1B680133084A13607B6A5A1E8C
:104CD0007A62002B7FF453AFD7F804D000BF2C3793
:104CE000BD46BDE8F08F00BF5C200020701800209A
:104CF000000000C080B400AF034B00221A7000BF58
:104D0000BD465DF8047B70475820002080B483B016
:104D100000AF87ED010AC7ED000A064A7B68136001
:104D2000044A3B68536000BF0C37BD465DF8047B06
:104D3000704700BF502000202DE9B00F89B000AFB0
:104D4000786039607B680A2B57DD7B68002B00DABE
:104D500001335B10FB61FB697B61344B1B689B007B
:104D6000334A13443B613B6800229A4693464FF016
:104D700000024FF0000353460022396800200C4621
:104D8000054642EA040843EA0509C7E90289FB69C6
:104D9000013BFB6109E0FB695A1EFA61DB003A69DD
:104DA000D118D7E90223C1E90023FB69002BF2D116
:104DB000FB69DB003A69D118D7E90223C1E9002376
:104DC0007B68002B00DA01335B101A467B691344C1
:104DD0001A46164B1B681344144A13607B6803F091
:104DE0000103002B1CD0114B1B685A1C0F490A6091
:104DF0000F493A6841F8232012E00023BB610BE021
:104E00000A4B1B685A1C09490A6009493A6841F86B
:104E10002320BB690133BB61BA697B689A42EFDB2F
:104E200000BF2437BD46BDE8B00F704770180020A2
:104E3000000000C080B400AF044B1B68044A13603C
:104E400000BFBD465DF8047B704700BF70180020AE
:104E50007418002080B400AF044B1B68044A136030
:104E600000BFBD465DF8047B704700BF741800208A
:104E70007018002080B483B000AF7860054B1A68CA
:104E80007B681344034A136000BF0C37BD465DF8CE
:104E9000047B70477018002080B485B000AFF860C4
:104EA000B9607A603B603B68BA6803FB02F27B68DA
:104EB0001A44FB681344044A136000BF1437BD460C
:104EC0005DF8047B704700BF7018002080B489B083
:104ED00000AFF860B9607A600F4B1A68BB68D31AEC
:104EE000FB61FA697B68B2FBF3F3BB61FA69BB69EA
:104EF00019467B6801FB03F3D31A7B61FB681A46F2
:104F000007F1140393E8030082E80300F8682437EC
:104F1000BD465DF8047B70477018002080B489B0EE
:104F200000AFF860B9607A603B607A68BB68D31AFA
:104F3000FB61FA693B68B2FBF3F3BB61FA69BB69D9
:104F400019463B6801FB03F3D31A7B61FB681A46E1
:104F500007F1140393E8030082E80300F86824379C
:104F6000BD465DF8047B704780B483B000AF7860C5
:104F700039607A683B68D21A054B1B681344044AAF
:104F8000136000BF0C37BD465DF8047B704700BF5F
:104F90007018002080B485B000AF786039607B68FD
:104FA000FB600E4B1B689B000D4A1344BB6004E082
:104FB000BB681A1DBA603A681A60FB685A1EFA602C
:104FC000002BF5D1054B1A687B681344034A136024
:104FD00000BF1437BD465DF8047B70477018002091
:104FE000000000C090B587B000AFF860B9607A608B
:104FF00087ED000AB7EE007AD7ED007A77EE676AA0
:10500000FB6807EE903AB8EEE77AC6EE877AC7ED0E
:10501000047AFB68174A136000237B611FE07B69F9
:10502000B3F5FA7F20DA7B6907EE903AB8EEE77ABB
:10503000D7ED047A27EE277AD7ED007A77EE277A34
:105040007B695C1CB0EE670A7968B86802F070FB97
:105050000346084A42F824307B6901337B617A6950
:10506000FB689A42DBDB00E000BF00BF1C37BD4697
:1050700090BD00BF7818002090B585B000AF6446A1
:10508000C7F804C00D4BB3F808120C4BB3F80A2252
:10509000A3680020FDF730FA0346FB81FB89912BC2
:1050A00005D9FB89A92B02D8054B636002E0236870
:1050B000636000BF00BF1437BD4690BD5C20002078
:1050C0007878FFFF80B592B000AF78613961FA60FF
:1050D00087ED020AC7ED010A3B6007F150037B62CE
:1050E0007B69BB613B683B627B6D1B787B647B6D3E
:1050F00001331B783B640223FB63BB69FB613B6D9F
:10510000002B40F0DC806AE03B6CBB620DE0704B32
:105110001B685A1C6E490A60FA696E4941F82320DF
:1051200007F118039C46FFF7A7FF3B6C5A1E3A6431
:10513000002BECD17B6C002B26D0FB6B5A1CFA6346
:105140001A467B6D13441B783B64FB6997ED020A9A
:105150003A691946386CFFF745FF0023BB630EE040
:10516000BB6B5A1C5A4B1968BB6B0B445A4951F81C
:105170002220584941F82320BB6B0133BB63564BB7
:105180001A68BB6B9A42EBD8514B1B683A6A1344BE
:105190004F4A136007F118039C46FFF76DFFFB6948
:1051A00097ED010AFA681946B86AFFF71BFF00235A
:1051B0007B630FE07B6B5A1C454B19687B6BCB1AEA
:1051C000013B454951F82220424941F823207B6B9D
:1051D00001337B63404B1A687B6B9A42EAD87B6C45
:1051E0005A1E7A64002B8FD16EE03B6CBB620BE0E1
:1051F000374B1B68FA69374941F82320344B1B6849
:105200003A6A1344324A13603B6C5A1E3A64002BCC
:10521000EED17B6C002B29D0FB6B5A1CFA631A462B
:105220007B6D13441B783B64FB6997ED010AFA68B8
:105230001946386CFFF7D6FE00233B6311E03B6B49
:105240005A1C396B3B6A03FB01F1214B1B680B4471
:10525000214951F822201F4941F823203B6B01339B
:105260003B631D4B1A683B6B9A42E8D8184B1B688E
:105270000133174A1360FB6997ED020A3A69194630
:10528000B86AFFF7AFFE0023FB6213E0FB6A5A1C0B
:105290000F4B1968FB6A013318463B6A00FB03F3A6
:1052A000CB1A0D4951F822200A4941F82320FB6A04
:1052B0000133FB62084B1A68FB6A9A42E6D87B6CA2
:1052C0005A1E7A64002B90D100BF4837BD4680BD7E
:1052D00070180020000000C07818002080B58EB043
:1052E00000AF78613961FA6087ED020AC7ED010A03
:1052F0003B607B6C1B787B637B6C01331B783B636F
:105300000223FB623B6C002B40F0CE805EE03B6BE7
:10531000BB6108E0694B1B685A1C68490A60684910
:105320007A6941F823203B6B5A1E3A63002BF1D176
:105330007B6B002B25D0FB6A5A1CFA621A467B6CE9
:1053400013441B783B6397ED010AFA687969386B5F
:10535000FFF748FE0023BB620EE0BB6A5A1C574BA6
:105360001968BB6A0B44574951F82220544941F847
:105370002320BB6A0133BB62524B1A68BB6A9A4254
:10538000EBD84E4B1A683B68D31A4C4A136097ED22
:10539000020A3A697969B869FFF724FE00237B6243
:1053A0000FE07B6A5A1C454B19687B6ACB1A013B9C
:1053B000444951F82220424941F823207B6A0133B5
:1053C0007B62404B1A687B6A9A42EAD87B6B5A1E12
:1053D0007A63002B9BD16CE03B6BBB610BE0374BDE
:1053E0001B6837497A6941F82320344B1A683B68B7
:1053F000D31A324A13603B6B5A1E3A63002BEED12C
:105400007B6B002B28D0FB6A5A1CFA621A467B6C15
:1054100013441B783B6397ED020A3A697969386B4C
:10542000FFF7E0FD00233B6211E03B6A5A1C234B6F
:1054300019683B6A386800FB03F3CB1A214951F81D
:1054400022201F4941F823203B6A01333B621D4B58
:105450001A683B6A9A42E8D8184B1B680133174A0E
:10546000136097ED010AFA687969B869FFF7BAFD28
:105470000023FB6113E0FB695A1CFB6901331946E9
:105480003B6803FB01F10D4B1B680B440D4951F8C0
:1054900022200B4941F82320FB690133FB61094BB2
:1054A0001A68FB699A42E6D87B6B5A1E7A63002B16
:1054B00092D100BF3837BD4680BD00BF70180020B4
:1054C000000000C07818002080B58EB000AF786171
:1054D0003961FA6087ED020AC7ED010A3B607B6C17
:1054E0001B787B637B6C01331B783B630223FB627D
:1054F0003B6C002B40F0CE805EE03B6BBB6108E074
:10550000694B1B685A1E68490A6068497A6941F804
:1055100023203B6B5A1E3A63002BF1D17B6B002B8F
:1055200025D0FB6A5A1CFA621A467B6C13441B781E
:105530003B6397ED010AFA687969386BFFF752FD12
:105540000023BB620EE0BB6A5A1C574B1968BB6A4A
:10555000CB1A574951F82220544941F82320BB6AFD
:105560000133BB62524B1A68BB6A9A42EBD84E4B6E
:105570001A683B6813444C4A136097ED020A3A6973
:105580007969B869FFF72EFD00237B620FE07B6A23
:105590005A1C454B19687B6A0B440133444951F846
:1055A0002220424941F823207B6A01337B62404B31
:1055B0001A687B6A9A42EAD87B6B5A1E7A63002B80
:1055C0009BD16CE03B6BBB610BE0374B1B683749F1
:1055D0007A6941F82320344B1A683B681344324AF5
:1055E00013603B6B5A1E3A63002BEED17B6B002B92
:1055F00028D0FB6A5A1CFA621A467B6C13441B784B
:105600003B6397ED020A3A697969386BFFF7EAFC68
:1056100000233B6211E03B6A5A1C3B6A396803FB7A
:1056200001F1214B1B680B44214951F822201F49ED
:1056300041F823203B6A01333B621D4B1A683B6AE9
:105640009A42E8D8184B1B68013B174A136097ED44
:10565000010AFA687969B869FFF7C4FC0023FB61A5
:1056600013E0FB695A1C104B1968FB69013318469B
:105670003B6800FB03F3CB1A0D4951F822200B497C
:1056800041F82320FB690133FB61094B1A68FB6970
:105690009A42E6D87B6B5A1E7A63002B92D100BFE8
:1056A0003837BD4680BD00BF70180020000000C024
:1056B0007818002080B58EB000AF78613961FA604B
:1056C00087ED020AC7ED010A3B607B6C1B787B63A8
:1056D0007B6C01331B783B630223FB623B6C002B2A
:1056E00040F0CE805EE03B6BBB6108E0694B1B681D
:1056F0005A1E68490A6068497A6941F823203B6B61
:105700005A1E3A63002BF1D17B6B002B25D0FB6A2C
:105710005A1CFA621A467B6C13441B783B6397ED64
:10572000020A3A697969386BFFF75CFC0023BB62B7
:105730000EE0BB6A5A1C574B1968BB6ACB1A574913
:1057400051F82220544941F82320BB6A0133BB623F
:10575000524B1A68BB6A9A42EBD84E4B1A683B68A8
:10576000D31A4C4A136097ED010AFA687969B8694F
:10577000FFF738FC00237B620FE07B6A5A1C454B25
:1057800019687B6A0B440133444951F8222042498D
:1057900041F823207B6A01337B62404B1A687B6AA5
:1057A0009A42EAD87B6B5A1E7A63002B9BD16CE03D
:1057B0003B6BBB610BE0374B1B6837497A6941F89B
:1057C0002320344B1A683B68D31A324A13603B6B70
:1057D0005A1E3A63002BEED17B6B002B28D0FB6A5C
:1057E0005A1CFA621A467B6C13441B783B6397ED94
:1057F000010AFA687969386BFFF7F4FB00233B6212
:1058000011E03B6A5A1C234B19683B6A386800FB5D
:1058100003F3CB1A214951F822201F4941F82320D4
:105820003B6A01333B621D4B1A683B6A9A42E8D8D7
:10583000184B1B68013B174A136097ED020A3A693F
:105840007969B869FFF7CEFB0023FB6113E0FB69C0
:105850005A1CFB69013319463B6803FB01F10D4BF0
:105860001B680B440D4951F822200B4941F82320B5
:10587000FB690133FB61094B1A68FB699A42E6D860
:105880007B6B5A1E7A63002B92D100BF3837BD461E
:1058900080BD00BF70180020000000C078180020F4
:1058A00080B586B002AFF860B9607A603B60FB6893
:1058B0009B00064A13440093BB693A687968B8684C
:1058C00002F082F900BF1037BD4680BD000000C065
:1058D00090B583B002AF02F001F9044602F012F96C
:1058E000034600932346002200210020FFF7D8FF43
:1058F00000BF0437BD4690BD90B58DB008AFF860CD
:10590000B9607A603B6002F0E9F8044602F0FAF808
:105910000246FB6A0693BB6A05937B6A04933B6A63
:1059200003933B680293BB680193FB6800931346A3
:1059300022460021786800F004F800BF1437BD4605
:1059400090BD90B58BB006AFF860B9607A603B60EF
:10595000BB6B05937B6B04933B6B0393FB6A0293D6
:10596000BB6A01937B6A0093FC683B6A3A6879687A
:10597000B868A04700BF1437BD4690BD90B58BB046
:1059800006AFF860B9607A603B60FB6A0593BB6A5A
:1059900004937B6A03933B6A02933B680193002361
:1059A00000937C6800233A6A39680020A0473B6A6C
:1059B00000933B68BA68F9680020FFF771FF00BFE9
:1059C0001437BD4690BD0000F0B58BB008AF7860CD
:1059D00002F084F8054602F095F8064602F07EF8DB
:1059E000044602F08FF802467B6806937B680593B5
:1059F0007B68049303920294002301930023009395
:105A000033462A4600210348FFF79BFF00BF0C37AF
:105A1000BD46F0BD3D5A200080B483B000AF786031
:105A20000B46FB707B6823F07F43FA781206134322
:105A300018460C37BD465DF8047B704780B586B0CC
:105A400000AFF860B9607A603B603B6A3A68B96859
:105A5000F868FFF721FA7B6AF96A1846FFF76CF9D4
:105A6000BB6A012B25D9796AB868FFF77DFA002354
:105A70007B6114E0F96A0120FFF75EF97B6A023B63
:105A8000396B1846FFF758F9F96A0120FFF754F906
:105A9000796AB868FFF768FA7B6901337B61BB6A92
:105AA0009A1E7B699A42E5D87B6AF96A1846FFF725
:105AB00043F900BF1837BD4680BD000080B586B0F1
:105AC00000AFF860B9607A603B603B6A3A68B968D9
:105AD000F868FFF7E1F97B6AF96A1846FFF72CF9D5
